{
  "_format": "hh-sol-artifact-1",
  "contractName": "BlockFundersNFT",
  "sourceName": "contracts/BlockFundersNFT.sol",
  "abi": [
    {
      "inputs": [],
      "stateMutability": "nonpayable",
      "type": "constructor"
    },
    {
      "inputs": [
        {
          "internalType": "address",
          "name": "sender",
          "type": "address"
        },
        {
          "internalType": "uint256",
          "name": "tokenId",
          "type": "uint256"
        },
        {
          "internalType": "address",
          "name": "owner",
          "type": "address"
        }
      ],
      "name": "ERC721IncorrectOwner",
      "type": "error"
    },
    {
      "inputs": [
        {
          "internalType": "address",
          "name": "operator",
          "type": "address"
        },
        {
          "internalType": "uint256",
          "name": "tokenId",
          "type": "uint256"
        }
      ],
      "name": "ERC721InsufficientApproval",
      "type": "error"
    },
    {
      "inputs": [
        {
          "internalType": "address",
          "name": "approver",
          "type": "address"
        }
      ],
      "name": "ERC721InvalidApprover",
      "type": "error"
    },
    {
      "inputs": [
        {
          "internalType": "address",
          "name": "operator",
          "type": "address"
        }
      ],
      "name": "ERC721InvalidOperator",
      "type": "error"
    },
    {
      "inputs": [
        {
          "internalType": "address",
          "name": "owner",
          "type": "address"
        }
      ],
      "name": "ERC721InvalidOwner",
      "type": "error"
    },
    {
      "inputs": [
        {
          "internalType": "address",
          "name": "receiver",
          "type": "address"
        }
      ],
      "name": "ERC721InvalidReceiver",
      "type": "error"
    },
    {
      "inputs": [
        {
          "internalType": "address",
          "name": "sender",
          "type": "address"
        }
      ],
      "name": "ERC721InvalidSender",
      "type": "error"
    },
    {
      "inputs": [
        {
          "internalType": "uint256",
          "name": "tokenId",
          "type": "uint256"
        }
      ],
      "name": "ERC721NonexistentToken",
      "type": "error"
    },
    {
      "inputs": [
        {
          "internalType": "address",
          "name": "owner",
          "type": "address"
        }
      ],
      "name": "OwnableInvalidOwner",
      "type": "error"
    },
    {
      "inputs": [
        {
          "internalType": "address",
          "name": "account",
          "type": "address"
        }
      ],
      "name": "OwnableUnauthorizedAccount",
      "type": "error"
    },
    {
      "anonymous": false,
      "inputs": [
        {
          "indexed": true,
          "internalType": "address",
          "name": "owner",
          "type": "address"
        },
        {
          "indexed": true,
          "internalType": "address",
          "name": "approved",
          "type": "address"
        },
        {
          "indexed": true,
          "internalType": "uint256",
          "name": "tokenId",
          "type": "uint256"
        }
      ],
      "name": "Approval",
      "type": "event"
    },
    {
      "anonymous": false,
      "inputs": [
        {
          "indexed": true,
          "internalType": "address",
          "name": "owner",
          "type": "address"
        },
        {
          "indexed": true,
          "internalType": "address",
          "name": "operator",
          "type": "address"
        },
        {
          "indexed": false,
          "internalType": "bool",
          "name": "approved",
          "type": "bool"
        }
      ],
      "name": "ApprovalForAll",
      "type": "event"
    },
    {
      "anonymous": false,
      "inputs": [
        {
          "indexed": false,
          "internalType": "uint256",
          "name": "_fromTokenId",
          "type": "uint256"
        },
        {
          "indexed": false,
          "internalType": "uint256",
          "name": "_toTokenId",
          "type": "uint256"
        }
      ],
      "name": "BatchMetadataUpdate",
      "type": "event"
    },
    {
      "anonymous": false,
      "inputs": [
        {
          "indexed": false,
          "internalType": "uint256",
          "name": "_tokenId",
          "type": "uint256"
        }
      ],
      "name": "MetadataUpdate",
      "type": "event"
    },
    {
      "anonymous": false,
      "inputs": [
        {
          "indexed": true,
          "internalType": "address",
          "name": "previousOwner",
          "type": "address"
        },
        {
          "indexed": true,
          "internalType": "address",
          "name": "newOwner",
          "type": "address"
        }
      ],
      "name": "OwnershipTransferred",
      "type": "event"
    },
    {
      "anonymous": false,
      "inputs": [
        {
          "indexed": true,
          "internalType": "address",
          "name": "from",
          "type": "address"
        },
        {
          "indexed": true,
          "internalType": "address",
          "name": "to",
          "type": "address"
        },
        {
          "indexed": true,
          "internalType": "uint256",
          "name": "tokenId",
          "type": "uint256"
        }
      ],
      "name": "Transfer",
      "type": "event"
    },
    {
      "inputs": [
        {
          "internalType": "address",
          "name": "to",
          "type": "address"
        },
        {
          "internalType": "uint256",
          "name": "tokenId",
          "type": "uint256"
        }
      ],
      "name": "approve",
      "outputs": [],
      "stateMutability": "nonpayable",
      "type": "function"
    },
    {
      "inputs": [
        {
          "internalType": "address",
          "name": "owner",
          "type": "address"
        }
      ],
      "name": "balanceOf",
      "outputs": [
        {
          "internalType": "uint256",
          "name": "",
          "type": "uint256"
        }
      ],
      "stateMutability": "view",
      "type": "function"
    },
    {
      "inputs": [
        {
          "internalType": "uint256",
          "name": "tokenId",
          "type": "uint256"
        }
      ],
      "name": "burn",
      "outputs": [],
      "stateMutability": "nonpayable",
      "type": "function"
    },
    {
      "inputs": [
        {
          "internalType": "uint256",
          "name": "tokenId",
          "type": "uint256"
        }
      ],
      "name": "getApproved",
      "outputs": [
        {
          "internalType": "address",
          "name": "",
          "type": "address"
        }
      ],
      "stateMutability": "view",
      "type": "function"
    },
    {
      "inputs": [
        {
          "internalType": "address",
          "name": "owner",
          "type": "address"
        },
        {
          "internalType": "address",
          "name": "operator",
          "type": "address"
        }
      ],
      "name": "isApprovedForAll",
      "outputs": [
        {
          "internalType": "bool",
          "name": "",
          "type": "bool"
        }
      ],
      "stateMutability": "view",
      "type": "function"
    },
    {
      "inputs": [
        {
          "internalType": "address",
          "name": "to",
          "type": "address"
        },
        {
          "internalType": "uint256",
          "name": "tokenId",
          "type": "uint256"
        },
        {
          "internalType": "string",
          "name": "uri",
          "type": "string"
        }
      ],
      "name": "mint",
      "outputs": [],
      "stateMutability": "nonpayable",
      "type": "function"
    },
    {
      "inputs": [],
      "name": "name",
      "outputs": [
        {
          "internalType": "string",
          "name": "",
          "type": "string"
        }
      ],
      "stateMutability": "view",
      "type": "function"
    },
    {
      "inputs": [],
      "name": "owner",
      "outputs": [
        {
          "internalType": "address",
          "name": "",
          "type": "address"
        }
      ],
      "stateMutability": "view",
      "type": "function"
    },
    {
      "inputs": [
        {
          "internalType": "uint256",
          "name": "tokenId",
          "type": "uint256"
        }
      ],
      "name": "ownerOf",
      "outputs": [
        {
          "internalType": "address",
          "name": "",
          "type": "address"
        }
      ],
      "stateMutability": "view",
      "type": "function"
    },
    {
      "inputs": [],
      "name": "renounceOwnership",
      "outputs": [],
      "stateMutability": "nonpayable",
      "type": "function"
    },
    {
      "inputs": [
        {
          "internalType": "address",
          "name": "from",
          "type": "address"
        },
        {
          "internalType": "address",
          "name": "to",
          "type": "address"
        },
        {
          "internalType": "uint256",
          "name": "tokenId",
          "type": "uint256"
        }
      ],
      "name": "safeTransferFrom",
      "outputs": [],
      "stateMutability": "nonpayable",
      "type": "function"
    },
    {
      "inputs": [
        {
          "internalType": "address",
          "name": "from",
          "type": "address"
        },
        {
          "internalType": "address",
          "name": "to",
          "type": "address"
        },
        {
          "internalType": "uint256",
          "name": "tokenId",
          "type": "uint256"
        },
        {
          "internalType": "bytes",
          "name": "data",
          "type": "bytes"
        }
      ],
      "name": "safeTransferFrom",
      "outputs": [],
      "stateMutability": "nonpayable",
      "type": "function"
    },
    {
      "inputs": [
        {
          "internalType": "address",
          "name": "operator",
          "type": "address"
        },
        {
          "internalType": "bool",
          "name": "approved",
          "type": "bool"
        }
      ],
      "name": "setApprovalForAll",
      "outputs": [],
      "stateMutability": "nonpayable",
      "type": "function"
    },
    {
      "inputs": [
        {
          "internalType": "bytes4",
          "name": "interfaceId",
          "type": "bytes4"
        }
      ],
      "name": "supportsInterface",
      "outputs": [
        {
          "internalType": "bool",
          "name": "",
          "type": "bool"
        }
      ],
      "stateMutability": "view",
      "type": "function"
    },
    {
      "inputs": [],
      "name": "symbol",
      "outputs": [
        {
          "internalType": "string",
          "name": "",
          "type": "string"
        }
      ],
      "stateMutability": "view",
      "type": "function"
    },
    {
      "inputs": [
        {
          "internalType": "uint256",
          "name": "tokenId",
          "type": "uint256"
        }
      ],
      "name": "tokenURI",
      "outputs": [
        {
          "internalType": "string",
          "name": "",
          "type": "string"
        }
      ],
      "stateMutability": "view",
      "type": "function"
    },
    {
      "inputs": [
        {
          "internalType": "address",
          "name": "from",
          "type": "address"
        },
        {
          "internalType": "address",
          "name": "to",
          "type": "address"
        },
        {
          "internalType": "uint256",
          "name": "tokenId",
          "type": "uint256"
        }
      ],
      "name": "transferFrom",
      "outputs": [],
      "stateMutability": "nonpayable",
      "type": "function"
    },
    {
      "inputs": [
        {
          "internalType": "address",
          "name": "newOwner",
          "type": "address"
        }
      ],
      "name": "transferOwnership",
      "outputs": [],
      "stateMutability": "nonpayable",
      "type": "function"
    }
  ],
  "bytecode": "0x60806040523480156200001157600080fd5b50336040518060400160405280600f81526020016e109b1bd8dad19d5b99195c9cd39195608a1b81525060405180604001604052806005815260200164109193919560da1b81525081600090816200006a9190620001b4565b506001620000798282620001b4565b5050506001600160a01b038116620000ab57604051631e4fbdf760e01b81526000600482015260240160405180910390fd5b620000b681620000bd565b5062000280565b600780546001600160a01b038381166001600160a01b0319831681179093556040519116919082907f8be0079c531659141344cd1fd0a4f28419497f9722a3daafe3b4186f6b6457e090600090a35050565b634e487b7160e01b600052604160045260246000fd5b600181811c908216806200013a57607f821691505b6020821081036200015b57634e487b7160e01b600052602260045260246000fd5b50919050565b601f821115620001af57600081815260208120601f850160051c810160208610156200018a5750805b601f850160051c820191505b81811015620001ab5782815560010162000196565b5050505b505050565b81516001600160401b03811115620001d057620001d06200010f565b620001e881620001e1845462000125565b8462000161565b602080601f831160018114620002205760008415620002075750858301515b600019600386901b1c1916600185901b178555620001ab565b600085815260208120601f198616915b82811015620002515788860151825594840194600190910190840162000230565b5085821015620002705787850151600019600388901b60f8161c191681555b5050505050600190811b01905550565b61147680620002906000396000f3fe608060405234801561001057600080fd5b50600436106101165760003560e01c8063715018a6116100a2578063b88d4fde11610071578063b88d4fde14610239578063c87b56dd1461024c578063d3fc98641461025f578063e985e9c514610272578063f2fde38b146102ae57600080fd5b8063715018a6146102055780638da5cb5b1461020d57806395d89b411461021e578063a22cb4651461022657600080fd5b806323b872dd116100e957806323b872dd1461019857806342842e0e146101ab57806342966c68146101be5780636352211e146101d157806370a08231146101e457600080fd5b806301ffc9a71461011b57806306fdde0314610143578063081812fc14610158578063095ea7b314610183575b600080fd5b61012e610129366004610f58565b6102c1565b60405190151581526020015b60405180910390f35b61014b6102d2565b60405161013a9190610fc5565b61016b610166366004610fd8565b610364565b6040516001600160a01b03909116815260200161013a565b61019661019136600461100d565b61038d565b005b6101966101a6366004611037565b61039c565b6101966101b9366004611037565b61042c565b6101966101cc366004610fd8565b61044c565b61016b6101df366004610fd8565b610458565b6101f76101f2366004611073565b610463565b60405190815260200161013a565b6101966104ab565b6007546001600160a01b031661016b565b61014b6104bf565b61019661023436600461108e565b6104ce565b610196610247366004611156565b6104d9565b61014b61025a366004610fd8565b6104f0565b61019661026d3660046111d2565b6104fb565b61012e61028036600461123d565b6001600160a01b03918216600090815260056020908152604080832093909416825291909152205460ff1690565b6101966102bc366004611073565b61050f565b60006102cc8261054d565b92915050565b6060600080546102e190611270565b80601f016020809104026020016040519081016040528092919081815260200182805461030d90611270565b801561035a5780601f1061032f5761010080835404028352916020019161035a565b820191906000526020600020905b81548152906001019060200180831161033d57829003601f168201915b5050505050905090565b600061036f82610572565b506000828152600460205260409020546001600160a01b03166102cc565b6103988282336105ab565b5050565b6001600160a01b0382166103cb57604051633250574960e11b8152600060048201526024015b60405180910390fd5b60006103d88383336105b8565b9050836001600160a01b0316816001600160a01b031614610426576040516364283d7b60e01b81526001600160a01b03808616600483015260248201849052821660448201526064016103c2565b50505050565b610447838383604051806020016040528060008152506104d9565b505050565b610398600082336105b8565b60006102cc82610572565b60006001600160a01b03821661048f576040516322718ad960e21b8152600060048201526024016103c2565b506001600160a01b031660009081526003602052604090205490565b6104b36106b1565b6104bd60006106de565b565b6060600180546102e190611270565b610398338383610730565b6104e484848461039c565b610426848484846107cf565b60606102cc826108f8565b6105058383610a09565b6104478282610a23565b6105176106b1565b6001600160a01b03811661054157604051631e4fbdf760e01b8152600060048201526024016103c2565b61054a816106de565b50565b60006001600160e01b03198216632483248360e11b14806102cc57506102cc82610a73565b6000818152600260205260408120546001600160a01b0316806102cc57604051637e27328960e01b8152600481018490526024016103c2565b6104478383836001610ac3565b6000828152600260205260408120546001600160a01b03908116908316156105e5576105e5818486610be8565b6001600160a01b0381161561062357610602600085600080610ac3565b6001600160a01b038116600090815260036020526040902080546000190190555b6001600160a01b03851615610652576001600160a01b0385166000908152600360205260409020805460010190555b60008481526002602052604080822080546001600160a01b0319166001600160a01b0389811691821790925591518793918516917fddf252ad1be2c89b69c2b068fc378daa952ba7f163c4a11628f55a4df523b3ef91a4949350505050565b6007546001600160a01b031633146104bd5760405163118cdaa760e01b81523360048201526024016103c2565b600780546001600160a01b038381166001600160a01b0319831681179093556040519116919082907f8be0079c531659141344cd1fd0a4f28419497f9722a3daafe3b4186f6b6457e090600090a35050565b6001600160a01b03821661076257604051630b61174360e31b81526001600160a01b03831660048201526024016103c2565b6001600160a01b03838116600081815260056020908152604080832094871680845294825291829020805460ff191686151590811790915591519182527f17307eab39ab6107e8899845ad3d59bd9653f200f220920489ca2b5937696c31910160405180910390a3505050565b6001600160a01b0383163b1561042657604051630a85bd0160e11b81526001600160a01b0384169063150b7a02906108119033908890879087906004016112aa565b6020604051808303816000875af192505050801561084c575060408051601f3d908101601f19168201909252610849918101906112e6565b60015b6108b5573d80801561087a576040519150601f19603f3d011682016040523d82523d6000602084013e61087f565b606091505b5080516000036108ad57604051633250574960e11b81526001600160a01b03851660048201526024016103c2565b805181602001fd5b6001600160e01b03198116630a85bd0160e11b146108f157604051633250574960e11b81526001600160a01b03851660048201526024016103c2565b5050505050565b606061090382610572565b506000828152600660205260408120805461091d90611270565b80601f016020809104026020016040519081016040528092919081815260200182805461094990611270565b80156109965780601f1061096b57610100808354040283529160200191610996565b820191906000526020600020905b81548152906001019060200180831161097957829003601f168201915b5050505050905060006109b460408051602081019091526000815290565b905080516000036109c6575092915050565b8151156109f85780826040516020016109e0929190611303565b60405160208183030381529060405292505050919050565b610a0184610c4c565b949350505050565b610398828260405180602001604052806000815250610cc1565b6000828152600660205260409020610a3b8282611380565b506040518281527ff8e1a15aba9398e019f0b49df1a4fde98ee17ae345cb5f6b5e2c27f5033e8ce79060200160405180910390a15050565b60006001600160e01b031982166380ac58cd60e01b1480610aa457506001600160e01b03198216635b5e139f60e01b145b806102cc57506301ffc9a760e01b6001600160e01b03198316146102cc565b8080610ad757506001600160a01b03821615155b15610bb8576000610ae784610572565b90506001600160a01b03831615801590610b135750826001600160a01b0316816001600160a01b031614155b8015610b4557506001600160a01b0380821660009081526005602090815260408083209387168352929052205460ff16155b15610b6e5760405163a9fbf51f60e01b81526001600160a01b03841660048201526024016103c2565b8115610bb65783856001600160a01b0316826001600160a01b03167f8c5be1e5ebec7d5bd14f71427d1e84f3dd0314c0f7b2291e5b200ac8c7c3b92560405160405180910390a45b505b5050600090815260046020526040902080546001600160a01b0319166001600160a01b0392909216919091179055565b610bf3838383610cd8565b610447576001600160a01b038316610c2157604051637e27328960e01b8152600481018290526024016103c2565b60405163177e802f60e01b81526001600160a01b0383166004820152602481018290526044016103c2565b6060610c5782610572565b506000610c6f60408051602081019091526000815290565b90506000815111610c8f5760405180602001604052806000815250610cba565b80610c9984610d5b565b604051602001610caa929190611303565b6040516020818303038152906040525b9392505050565b610ccb8383610dfb565b61044760008484846107cf565b60006001600160a01b03831615801590610a015750826001600160a01b0316846001600160a01b03161480610d3257506001600160a01b0380851660009081526005602090815260408083209387168352929052205460ff165b80610a015750506000908152600460205260409020546001600160a01b03908116911614919050565b60606000610d6883610e60565b600101905060008167ffffffffffffffff811115610d8857610d886110ca565b6040519080825280601f01601f191660200182016040528015610db2576020820181803683370190505b5090508181016020015b600019017f3031323334353637383961626364656600000000000000000000000000000000600a86061a8153600a8504945084610dbc57509392505050565b6001600160a01b038216610e2557604051633250574960e11b8152600060048201526024016103c2565b6000610e33838360006105b8565b90506001600160a01b03811615610447576040516339e3563760e11b8152600060048201526024016103c2565b6000807a184f03e93ff9f4daa797ed6e38ed64bf6a1f0100000000000000008310610ea9577a184f03e93ff9f4daa797ed6e38ed64bf6a1f010000000000000000830492506040015b6d04ee2d6d415b85acef81000000008310610ed5576d04ee2d6d415b85acef8100000000830492506020015b662386f26fc100008310610ef357662386f26fc10000830492506010015b6305f5e1008310610f0b576305f5e100830492506008015b6127108310610f1f57612710830492506004015b60648310610f31576064830492506002015b600a83106102cc5760010192915050565b6001600160e01b03198116811461054a57600080fd5b600060208284031215610f6a57600080fd5b8135610cba81610f42565b60005b83811015610f90578181015183820152602001610f78565b50506000910152565b60008151808452610fb1816020860160208601610f75565b601f01601f19169290920160200192915050565b602081526000610cba6020830184610f99565b600060208284031215610fea57600080fd5b5035919050565b80356001600160a01b038116811461100857600080fd5b919050565b6000806040838503121561102057600080fd5b61102983610ff1565b946020939093013593505050565b60008060006060848603121561104c57600080fd5b61105584610ff1565b925061106360208501610ff1565b9150604084013590509250925092565b60006020828403121561108557600080fd5b610cba82610ff1565b600080604083850312156110a157600080fd5b6110aa83610ff1565b9150602083013580151581146110bf57600080fd5b809150509250929050565b634e487b7160e01b600052604160045260246000fd5b600067ffffffffffffffff808411156110fb576110fb6110ca565b604051601f8501601f19908116603f01168101908282118183101715611123576111236110ca565b8160405280935085815286868601111561113c57600080fd5b858560208301376000602087830101525050509392505050565b6000806000806080858703121561116c57600080fd5b61117585610ff1565b935061118360208601610ff1565b925060408501359150606085013567ffffffffffffffff8111156111a657600080fd5b8501601f810187136111b757600080fd5b6111c6878235602084016110e0565b91505092959194509250565b6000806000606084860312156111e757600080fd5b6111f084610ff1565b925060208401359150604084013567ffffffffffffffff81111561121357600080fd5b8401601f8101861361122457600080fd5b611233868235602084016110e0565b9150509250925092565b6000806040838503121561125057600080fd5b61125983610ff1565b915061126760208401610ff1565b90509250929050565b600181811c9082168061128457607f821691505b6020821081036112a457634e487b7160e01b600052602260045260246000fd5b50919050565b60006001600160a01b038087168352808616602084015250836040830152608060608301526112dc6080830184610f99565b9695505050505050565b6000602082840312156112f857600080fd5b8151610cba81610f42565b60008351611315818460208801610f75565b835190830190611329818360208801610f75565b01949350505050565b601f82111561044757600081815260208120601f850160051c810160208610156113595750805b601f850160051c820191505b8181101561137857828155600101611365565b505050505050565b815167ffffffffffffffff81111561139a5761139a6110ca565b6113ae816113a88454611270565b84611332565b602080601f8311600181146113e357600084156113cb5750858301515b600019600386901b1c1916600185901b178555611378565b600085815260208120601f198616915b82811015611412578886015182559484019460019091019084016113f3565b50858210156114305787850151600019600388901b60f8161c191681555b5050505050600190811b0190555056fea2646970667358221220ff2a910e3324ee1bfe4893d2b14259d5e2c70fe6b2ae28d6325dbcb540aab5fc64736f6c63430008140033",
  "linkReferences": {},
  "deployedLinkReferences": {}
}